:100000000C94F0020C9421030C9421030C94210312
:100010000C9421030C9421030C9421030C942103D0
:100020000C9421030C9421030C9421030C942103C0
:100030000C9421030C9421030C9421030C942103B0
:100040000C9421030C9436030C9421030C9421038B
:100050000C9421030C9421030C9421030C94B81CE0
:100060000C9421030C9422200C9458200C9421030E
:100070000C9421030C9421030C9421030C94210370
:100080000C9421030C9421030C9421030C94210360
:100090000C94CF200C9405210C9421030C94E20ABB
:1000A0000C9421030C9421030C9421030C94210340
:1000B0000C9421030C9421030C9421030C94210330
:1000C0000C9421030C9421030C9421030C947C21A7
:1000D0000C94B2210C9421030C9429220C945F22DD
:1000E0000C942103041E071EF61DFA1D001E3E1E61
:1000F0000B1E0F1E151E191E1D1E231E271E2B1E36
:100100003E1E311E351E391E0C94DC210C94391E06
:100110000C94E6210C94351E0C94231E0C94191E8D
:100120000C942F210C94FA1D0C94390A0C941D1E6A
:100130000C94071E0C94391F0C94DB1E0C94A11414
:100140000C945B1F0C94F61D0C942B1E0C94480A07
:100150000C9489220C9439210C941E0A0C943C14A2
:100160000C94B50A0C943E1E0C94271E0C94741A21
:100170000C9493220C94001E0C940B1E0C94041EE1
:100180000C948C200C94C71E0C94AE1E0C9442143C
:100190000C94311E0C94490A0C94E6220C94151E02
:1001A0000C94B91E0C94260A0C94760A0C948220A6
:1001B0000C940F1E41542B43434C4B3F0041542B96
:1001C000434950434C4F53450041542B43495053EE
:1001D000454E443D0041542B4349505354415254E1
:1001E0003D22544350222C226261617476616B740B
:1001F0007365727665722E74656C652E6E746E759D
:100200002E6E6F222C2238383834220041542B4372
:10021000535100220041542B434D47533D2232623B
:10022000333433370041542B435343533D22484525
:1002300058220041542B434D47463D310041542B39
:10024000434E54500041542B434E54503D226E6F48
:100250002E706F6F6C2E6E74702E6F7267222C3141
:100260002C312C300041542B53415042523D312C03
:10027000310041542B53415042523D332C312C22FA
:10028000505744222C22220041542B5341504252B9
:100290003D332C312C2255534552222C2222004131
:1002A000542B53415042523D332C312C2241504E5D
:1002B000222C2274656C6961220041542B534150F9
:1002C00042523D332C312C22436F6E74797065227B
:1002D0002C2247505253220041542B43494653523B
:1002E0000041542B43494943520041542B4353543A
:1002F000543D2274656C6961222C22222C2222003A
:1003000041542B4349504D55583D300041542B43E7
:10031000474154543D310041542B434C54533D31DB
:1003200000000000006410B71DC8206E3BAC30D93F
:10033000269041DC76F4516B6B5861B24D3C7105EF
:10034000502083B8ED44930FF0E8A3D6D68CB36168
:10035000CBB0C2649BD4D2D38678E20AA01CF2BD93
:10036000BD005EBCE2613FDD83C29C7E20A3FD1F19
:10037000419DC3217FFCA2401E5F01E3BD3E608220
:10038000DC237D9FC1421CFEA0E1BF5D0380DE3CFB
:1003900062BEE0025CDF81633D7C22C09E1D43A102
:1003A000FF4618FAA427799BC584DA3866E5BB595D
:1003B00007DB856739BAE406581947A5FB7826C4D8
:1003C0009A653BD987045AB8E6A7F91B45C6987ABF
:1003D00024F8A6441A99C7257B3A6486D85B05E7BA
:1003E000B98CD2306EEDB3510F4E10F2AC2F719329
:1003F000CD114FADF3702ECC92D38D6F31B2EC0E88
:1004000050AFF1134DCE90722C6D33D18F0C52B092
:10041000EE326C8ED0530DEFB1F0AE4C1291CF2D69
:1004200073CA947628ABF517490856B4EA6937D5EC
:100430008B5709EBB536688AD495CB2977F4AA484F
:1004400016E9B7550B88D6346A2B7597C94A14F646
:10045000A8742AC896154BA9F7B6E80A54D7896B31
:10046000354D6F64656D20736574757020666169C4
:100470006C65640000000A0B02090C0D0E080703EE
:100480000401000000000000000000000000000067
:10049000000000000000000000000000000000005C
:1004A0001211100000000000000000000000000019
:1004B00000000000000000000000010210202008E1
:1004C00008102040102040800201020108040201AF
:1004D000010204081020408080402010080402011E
:1004E0008004020180402010080402010804020177
:1004F00001020408102040800102040810204080FE
:1005000005050505070508080808020202020A0A8F
:1005100008080404040401010101010101010303AD
:10052000030303030303040707070C0C0C0C0C0C58
:100530000C0C0202020206060606060606060B0B55
:100540000B0B0B0B0B0B00002000230026002900D7
:100550002C002F00320000010000030106010901F8
:1005600000002200250028002B002E00310034005E
:1005700002010000050108010B0100002100240018
:1005800027002A002D003000330001010000040183
:1005900007010A014E414E494E495459494E46CD34
:1005A000CCCC3D0AD7233C17B7D13877CC2B32952A
:1005B00095E6241FB14F0A000020410000C8420008
:1005C000401C4620BCBE4CCA1B0E5AAEC59D7400D2
:1005D000B50A3C14741A8C203921E6219322421466
:1005E00011241FBECFEFD1E2DEBFCDBF00E00CBFB4
:1005F00019E0A0E0B2E0E4E9FAE500E00BBF02C0D8
:1006000007900D92AA35B107D9F725E1AAE5B9E01F
:1006100001C01D92A13DB207E1F715E0CEEDD5E096
:1006200000E006C022970109FE010BBF0E941D29B0
:10063000C03DD10780E00807A9F70E94D7220C949B
:10064000382D0C9400000E94AF1A0E94FD1A0E94DF
:10065000431B0E947F1AE5E5F8E0A3EFBDE081911E
:100660008D9388E0E436F807D1F708951F920F9232
:100670000FB60F9211240BB60F922F933F934F9307
:100680005F936F937F938F939F93AF93BF93EF93FA
:10069000FF938091F5119091F611A091F711B0910F
:1006A000F8110196A11DB11D8093F5119093F611DB
:1006B000A093F711B093F8116091F5117091F611B4
:1006C0008091F7119091F8112AE030E040E050E07D
:1006D0000E94D328672B682B692B19F481E0809343
:1006E00012126091F5117091F6118091F7119091AD
:1006F000F81120E137E240E050E00E94D328672B58
:10070000682B692B19F481E0809311126091F51127
:100710007091F6118091F7119091F8112CE330E06F
:1007200040E050E00E94D328672B682B692B19F416
:1007300081E0809310126091F5117091F611809113
:10074000F7119091F8112CE231E040E050E00E9466
:10075000D328672B682B692B19F481E080930F1243
:100760006091F5117091F6118091F7119091F81147
:100770002AE030E040E050E00E94D328672B682B4D
:10078000692B19F481E080930E128091F5119091FC
:10079000F611A091F711B091F811CD97A105B1050F
:1007A00018F081E080930D12FF91EF91BF91AF910E
:1007B0009F918F917F916F915F914F913F912F9179
:1007C0000F900BBE0F900FBE0F901F901895E091E9
:1007D0000712F0910812EE0FFF1FE059F54F8081CC
:1007E00091818F30910520F081E08093760A04C0DA
:1007F0000E9711F01092760A8091760A811119C035
:100800002091FB113091FC118091F5119091F6111E
:10081000A091F711B091F811F901EE0FFF1FED58FB
:10082000F44F918380832F5F3F4F3093FC112093CF
:10083000FB1108958CE00E94C61D909335138093A0
:1008400034138DE00E94C61D9093331380933213AE
:1008500080913413909135138130924020F081E0E3
:100860008093F41102C01092F4116091F41170E0C1
:100870008BEF92E10E9424182091F41180913113A2
:10088000821709F458C0209331138091F51190918B
:10089000F611A091F711B091F811222311F0906890
:1008A00001C09F779093FA118093F911E09105129E
:1008B000F0910612EE0FFF1FED50F34F8091F911EA
:1008C0009091FA11918380832130A1F469EE75E053
:1008D00087E593E10E9455234091F5115091F6115F
:1008E0006091F7117091F8112AE030E087E593E10B
:1008F0000E949C248091F411811114C063E076E081
:1009000087E593E10E9455234091F5115091F6112E
:100910006091F7117091F8112AE030E087E593E1DA
:100920000E949C248091051290910612019690934A
:100930000612809305128091321390913313813007
:10094000924020F081E08093F31102C01092F311E5
:100950002091F31180913013821709F458C020932D
:1009600030138091F5119091F611A091F711B0918B
:10097000F811222311F0906801C09F779093FA112B
:100980008093F911E0910312F0910412EE0FFF1F12
:10099000ED50F44F8091F9119091FA119183808379
:1009A0002130A1F46EE176E087E593E10E945523C2
:1009B0004091F5115091F6116091F7117091F81175
:1009C0002AE030E087E593E10E949C248091F311B6
:1009D000811114C068E376E087E593E10E94552316
:1009E0004091F5115091F6116091F7117091F81145
:1009F0002AE030E087E593E10E949C248091031275
:100A0000909104120196909304128093031208951A
:100A1000AF92BF92CF92DF92EF92FF920F931F930C
:100A2000CF93DF9363E576E087E593E10E94862329
:100A30008091060290910702E0E8AE2EEAE0BE2E19
:100A40004DE75AE0CAE7DAE067E77AE02091091259
:100A500030910A12F3E0220F331FFA95E1F7280FC5
:100A6000391F12E003E0A4E0FA2EB5E0EB2E821766
:100A70009307B9F0FC01ED50F24F1083D501DD90E2
:100A80005D01D1820283DA01DD90AD01D382F4826F
:100A9000D990D582E682DB01DD90BD01D782089630
:100AA000E6CFC0E7DAE0AAE6BAE04091071250913B
:100AB000081266E0649F9001659F300D1124280F95
:100AC000391F47E058E08217930799F0FC01ED5079
:100AD000F24F4083688179812296718362835383C8
:100AE0006C9111967C91119712967483658306968A
:100AF000EACFC0910512D0910612A3EFBCE080E0CE
:100B000090E040E050E089010D50124F79E0F72E5F
:100B10004C175D0761F0F801E80FF91FF0826D9145
:100B20007D91718362834F5F5F4F0396F1CFCA015E
:100B3000880F991F840F951F820F931FC091031276
:100B4000D0910412A3EFBBE020E030E040E050E0A1
:100B50008C010D50124F6AE0F62E4C175D0769F0BC
:100B6000F801E20FF31FF0826D917D917183628332
:100B70004F5F5F4F2D5F3F4FF0CF9A01220F331F22
:100B8000240F351F280F391FE090FD11F090FE1142
:100B9000B6E6AB2EB9E0BB2E0AE519E0B90140E09C
:100BA00050E0CBE0DC2EDCE0CD2E4E155F05F1F001
:100BB000FB01ED50F24FD082E50189919991A99105
:100BC000B9915E0181839283A383B483C582E801D6
:100BD00089919991A991B9918E0186839783A08774
:100BE000B1874F5F5F4F665F7F4FDFCF8AE0849FA3
:100BF000B001859F700D1124620F731FC091FB110E
:100C0000D091FC11A3E7BBE080E090E020E030E071
:100C10008B010D50124FF6E0FF2E2C173D0761F0AF
:100C20004D915D91F801E80FF91FF08251834283E5
:100C30002F5F3F4F0396F1CFC901880F991F820F95
:100C4000931F860F971F9093070280930602DF91F0
:100C5000CF911F910F91FF90EF90DF90CF90BF90B9
:100C6000AF900895E0910912F0910A12E058F54F03
:100C70006081693240F081E08093F21280E595E076
:100C80000E94581302C01092F212E0910912F091E2
:100C90000A12E358F54F6081693240F081E0809399
:100CA000F11288ED94E00E94581302C01092F112E4
:100CB000E0910912F0910A12E658F54F608169320D
:100CC00040F081E08093F01280E694E00E94581397
:100CD00002C01092F012E0910912F0910A12E95844
:100CE000F54F6081693240F081E08093EF1288EE29
:100CF00093E00E94581302C01092EF121092EE126D
:100D00001092ED121092EC121092EB120895CF9304
:100D1000DF938FE093E10E940817C0910B12D091EE
:100D20000C1260EE75E08FE093E10E949917CC0FF2
:100D3000DD1FC95CD44F0E94712779836883C091FD
:100D40000B12D0910C1268ED75E08FE093E10E94D8
:100D50009917CC0FDD1FC550D54F0E94712779839D
:100D60006883C0910B12D0910C1260ED75E08FE09A
:100D700093E10E949917CC0FDD1FC154D54F0E94FB
:100D8000712779836883C0910B12D0910C1268ECA3
:100D900075E08FE093E10E949917CC0FDD1FCD57CE
:100DA000D54F0E947127798368836CE479E087E5E9
:100DB00093E10E94862364E976E087E593E10E944F
:100DC0005523E0910B12F0910C12EE0FFF1FE95C1E
:100DD000F44F608171814AE050E087E593E10E9421
:100DE000432462EB76E087E593E10E945523E0918E
:100DF0000B12F0910C12EE0FFF1FE550F54F6081C2
:100E000071814AE050E087E593E10E94432460ED60
:100E100076E087E593E10E945523E0910B12F09173
:100E20000C12EE0FFF1FE154F54F608171814AE013
:100E300050E087E593E10E9443246EEE76E087E57B
:100E400093E10E945523E0910B12F0910C12EE0FEA
:100E5000FF1FED57F54F608171814AE050E087E553
:100E600093E10E94432480910B1290910C12019601
:100E700090930C1280930B12CC9708F49DC064E6FB
:100E800076E087E593E10E948623C0910912D09114
:100E90000A1260910B1270910C1287E39BE00E9482
:100EA0009D17C058D54F8883C0910912D0910A125E
:100EB00060910B1270910C128BEF9AE00E949D17BB
:100EC000C358D54F8883C0910912D0910A126091FE
:100ED0000B1270910C128FEB9AE00E949D17C6586E
:100EE000D54F8883C0910912D0910A1260910B12DC
:100EF00070910C1283E89AE00E949D17C958D54F53
:100F0000888366E876E087E593E10E945523E091C7
:100F10000912F0910A12E058F54F4AE050E0608162
:100F200087E593E10E946F2464EA76E087E593E128
:100F30000E945523E0910912F0910A12E358F54FEF
:100F40004AE050E0608187E593E10E946F2462EC03
:100F500076E087E593E10E945523E0910912F09134
:100F60000A12E658F54F4AE050E0608187E593E1C8
:100F70000E946F2460EE76E087E593E10E9455239E
:100F8000E0910912F0910A12E958F54F4AE050E059
:100F9000608187E593E10E946F240E943206809170
:100FA000091290910A12019690930A1280930912E5
:100FB00010920C1210920B12DF91CF910895E091D4
:100FC0000712F0910812EE0FFF1FE059F54F6081F4
:100FD00071816C30710540F481E08093EA1280E702
:100FE00093E00E94581302C01092EA12E091071297
:100FF000F0910812EE0FFF1FE659F54F60817181E5
:101000006C30710530F41092EA1288EF92E00C9483
:1010100058131092E9120895CF93DF93C0910712ED
:10102000D091081288E00E94C61DFE01EE0FFF1F3E
:10103000E059F54F91838083C0910712D091081237
:1010400089E00E94C61DFE01EE0FFF1FE659F54F15
:10105000918380836EEF76E087E593E10E945523CC
:10106000E0910712F0910812EE0FFF1FE059F54FC3
:10107000608171814AE050E087E593E10E94862417
:101080006AE077E087E593E10E945523E09107123B
:10109000F0910812EE0FFF1FE659F54F6081718144
:1010A0004AE050E087E593E10E9486240E94DF0732
:1010B00080910712909108120196909308128093E4
:1010C0000712DF91CF910895E091FD11F091FE118B
:1010D000EE0FFF1FEE0FFF1FEA59F64F20E030E042
:1010E00046E154E460817181828193810E94542899
:1010F0001816C4F481E08093E812E091FF11F0919A
:101100000012EE0FFF1FEE0FFF1FE251F64F60813E
:101110007181828193810E94762780E892E00E940B
:10112000581302C01092E812E091FD11F091FE11E7
:10113000EE0FFF1FEE0FFF1FE65AF64F20E030E0E4
:1011400046E154E460817181828193810E94542838
:101150001816BCF481E08093E712E091FF11F09142
:101160000012EE0FFF1FEE0FFF1FEE58F64F6081CB
:101170007181828193810E94762788E092E00C94AD
:1011800058131092E7120895CF93DF93C091FF1187
:10119000D09100120E94421CFE01EE0FFF1FEE0FC5
:1011A000FF1FE251F64F608371838283938366E170
:1011B00077E087E593E10E945523E091FF11F091DC
:1011C0000012EE0FFF1FEE0FFF1FE251F64F40819E
:1011D00051816281738122E030E087E593E10E94D2
:1011E0009925C091FF11D09100120E947D1CFE0133
:1011F000EE0FFF1FEE0FFF1FEE58F64F6083718357
:101200008283938366E277E087E593E10E9455232A
:10121000E091FF11F0910012EE0FFF1FEE0FFF1F84
:10122000EE58F64F408151816281738122E030E0B7
:1012300087E593E10E9499256091FF11709100125A
:101240006F5F7F4F709300126093FF116C337105D5
:1012500008F46DC0C091FD11D091FE118EEE99E0A1
:101260000E94EA17FE01EE0FFF1FEE0FFF1FEA5963
:10127000F64F608371838283938366E377E087E52B
:1012800093E10E945523E091FD11F091FE11EE0FC4
:10129000FF1FEE0FFF1FEA59F64F40815181628117
:1012A000738122E030E087E593E10E949925C091A7
:1012B000FD11D091FE116091FF117091001282E733
:1012C00099E00E94EA17FE01EE0FFF1FEE0FFF1FCD
:1012D000E65AF64F60837183828393836BE477E0F1
:1012E00087E593E10E945523E091FD11F091FE11F5
:1012F000EE0FFF1FEE0FFF1FE65AF64F40815181A0
:101300006281738122E030E087E593E10E949925B4
:101310000E9464088091FD119091FE1101969093B6
:10132000FE118093FD11109200121092FF11DF91B7
:10133000CF91089583E190E0909307028093060295
:1013400010920C1210920B1210920A1210920912A3
:1013500010920812109207121092061210920512A3
:1013600010920412109203121092021210920112A3
:10137000109200121092FF111092FE111092FD11A6
:101380001092FC111092FB111092F5111092F611AF
:101390001092F7111092F81108958091121288237B
:1013A00021F00E9487061092121280911112882358
:1013B00021F00E94E70310921112809110128823ED
:1013C00021F00E940C081092101280910F128823B5
:1013D00021F00E941A0410920F1280910E1288239D
:1013E00021F00E94C40810920E1280910D128823E1
:1013F00021F10E94F71A0E9408056091060270917F
:10140000070283EF9DE00E942A1210920D120E94A3
:1014100086130E94F31361E087E10E94781E6AEF51
:1014200070E080E090E00E94311D60E087E10E9462
:10143000781E0E949A090C94F11A08958091421224
:1014400090E020914312821B91090895209143124C
:1014500080914212281750F4E22FF0E0EC5BFD4E31
:10146000808190E02F5F2093431208958FEF9FEFCC
:101470000895E091431280914212E81730F4F0E0B1
:10148000EC5BFD4E808190E008958FEF9FEF089513
:101490000895CF92DF92EF92FF920F931F93CF9315
:1014A000DF937C01CB018A0120911F12222389F056
:1014B000EB016B01C40ED51ECC15DD0569F06991F9
:1014C000D701ED91FC910190F081E02DC7011995B4
:1014D000F3CF642F0E94B90AC801DF91CF911F9109
:1014E0000F91FF90EF90DF90CF900895CF93DF930F
:1014F0001F92CDB7DEB7698320911F122223D1F04E
:1015000020912012203240F021E030E0FC013383B2
:10151000228380E090E015C080912112E82FF0E056
:10152000EE5DFD4E998190838F5F809321128093B1
:10153000201205C061E0CE0101960E94B90A81E047
:1015400090E00F90DF91CF910895FC0113821282F9
:1015500048EE53E060E070E0448355836683778310
:1015600084E697E091838083089583E192E10C946F
:10157000A50A613298F42091D112243089F4609345
:101580008612FC0188E892E1DC012A2F281B26172D
:1015900018F421912D93F9CF80E0089581E008950A
:1015A00082E0089585ED8093BC008091BC0084FDAD
:1015B000FCCF1092D112089585EC8093BC0010925C
:1015C000D11208951F920F920FB60F9211240BB6ED
:1015D0000F922F933F934F935F936F937F938F93CC
:1015E0009F93AF93BF93EF93FF938091B900887F50
:1015F000803609F49EC078F5883209F45DC090F415
:10160000803109F456C038F4882309F4F5C08830D5
:1016100009F44FC0F5C0883109F44EC0803209F496
:101620005FC0EEC0803409F46AC058F4803309F416
:1016300057C0883309F0E4C0809364120E94DC0A2A
:10164000DFC0803509F44FC0883509F45DC08834A7
:1016500009F0D6C0D3C0883909F4C4C0A8F48837CB
:1016600009F467C038F4883609F463C0803709F498
:1016700060C0C6C0883809F4B5C0803909F45FC0BD
:10168000803809F0BDC05BC0803B09F483C038F4EA
:10169000803A09F466C0883A09F47CC0B1C0803C45
:1016A00009F4A4C0883C09F4A1C0883B09F487C0B0
:1016B000A7C08091D01210C09091A9128091A81259
:1016C000981770F5E091A91281E08E0F8093A9120E
:1016D000F0E0E655FD4E80818093BB0085EC83C031
:1016E000809364128BC0E091A91281E08E0F8093E9
:1016F000A9128091BB00F0E0E655FD4E80839091E9
:10170000A9128091A8126BC0E091A91281E08E0FFE
:101710008093A9128091BB00F0E0E655FD4E8083D6
:101720008091CF1281116AC081E08093CE1284EA49
:101730005EC083E08093D11210926512CFCF80916A
:101740006512803208F04EC0E091651281E08E0F84
:10175000809365128091BB00F0E0EA59FD4E8083D2
:10176000BDCF0E94DC0A80916512803230F4E09196
:101770006512F0E0EA59FD4E10826091651270E04A
:10178000E091CA12F091CB1286E692E1199510927F
:10179000651236C084E08093D112109287121092A5
:1017A0008612E091CC12F091CD121995809186129B
:1017B000811105C081E08093861210928812E09119
:1017C000871281E08E0F80938712F0E0E857FD4E7C
:1017D00080818093BB009091871280918612981728
:1017E00008F47CCF85E88093BC000AC085EC809328
:1017F000BC001092D11204C0109264120E94D20A4E
:10180000FF91EF91BF91AF919F918F917F916F91D8
:101810005F914F913F912F910F900BBE0F900FBE94
:101820000F901F901895FC01208180E090E022230A
:1018300031F00196DF01A80FB91F2C91F8CF089560
:101840000F931F93CF93DF931F92CDB7DEB78C0119
:1018500069830E94130CD801A80FB91F69816C938A
:1018600011961C920F90DF91CF911F910F910895C7
:10187000FC0180E090E04191442381F09C0153E021
:10188000220F331F5A95E1F7880F991F820F931F7C
:10189000840F911D47FD9A95C097EDCF0895DC0107
:1018A000ED91FC910190F081E02D1994CF93DF939D
:1018B000EC010E94130C8C0F9D1FFC0134972081BA
:1018C0002F3469F4319620812B3449F431962081EC
:1018D0002D3029F4319681E090819A3009F080E032
:1018E000DF91CF910895CF93DF93EC010E94130C09
:1018F000FE01E80FF91F319781E090819E3309F0D6
:1019000080E0DF91CF910895CF93DF93EC010E94A7
:10191000130C84309105A4F08C0F9D1FFC013497AB
:101920002081263469F431962081213449F431969E
:101930002081293429F4319681E090819C3409F08A
:1019400080E0DF91CF910895CF93DF93EC016DE0BC
:1019500070E08EE295E10E944F0C6AE070E08EE24A
:1019600095E10E944F0C209739F0BE0180E090E095
:10197000DF91CF910C94311DDF91CF9108958EE2CC
:1019800095E10E94AE1E181619062CF48EE295E120
:101990000E94C71EF4CF08950F931F93CF93DF9338
:1019A000CDB7DEB7C058D1090FB6F894DEBF0FBE71
:1019B000CDBF19821A821B821C82FE0135968CE7EC
:1019C000DF011D928A95E9F70E94BF0C67E173E081
:1019D0008EE295E10E94242380E090E00E94A40C16
:1019E000CE0101960E94560C811110C08EE295E145
:1019F0000E94AE1E892BA1F38EE295E10E94C71EC4
:101A0000682FCE0101960E94200CEACF19820E9415
:101A1000BF0C6CE073E08EE295E10E94242380E02D
:101A200090E00E94A40CCE0101960E94560C8111F8
:101A300010C08EE295E10E94AE1E892BA1F38EE2CA
:101A400095E10E94C71E682FCE0101960E94200CCE
:101A5000EACF19820E94BF0C60E073E08EE295E14C
:101A60000E94242380E090E00E94A40CCE01019605
:101A70000E94560C811110C08EE295E10E94AE1EAC
:101A8000892BA1F38EE295E10E94C71E682FCE013B
:101A900001960E94200CEACF19820E94BF0C6AEEC8
:101AA00072E08EE295E10E94242380E090E00E94A3
:101AB000A40CCE0101960E94560C811110C08EE23A
:101AC00095E10E94AE1E892BA1F38EE295E10E9462
:101AD000C71E682FCE0101960E94200CEACF198202
:101AE0000E94BF0C61EE72E08EE295E10E94242319
:101AF00080E090E00E94A40CCE0101960E94560C5A
:101B0000811110C08EE295E10E94AE1E892BA1F3D7
:101B10008EE295E10E94C71E682FCE0101960E94B9
:101B2000200CEACF19820E94BF0C68ED72E08EE2B1
:101B300095E10E94242380E090E00E94A40C00E044
:101B400010E08EE295E10E94AE1E892BD1F38EE269
:101B500095E10E94C71E8E3211F40F5F1F4F0330B4
:101B600011057CF319820E94BF0C6AEB72E08EE2D1
:101B700095E10E94242380E090E00E94A40CCE0115
:101B800001960E94560C811110C08EE295E10E94D0
:101B9000AE1E892BA1F38EE295E10E94C71E682F2D
:101BA000CE0101960E94200CEACF19820E94BF0C40
:101BB0006FE972E08EE295E10E94242380E090E0DC
:101BC0000E94A40CCE0101960E94560C811110C0F7
:101BD0008EE295E10E94AE1E892BA1F38EE295E183
:101BE0000E94C71E682FCE0101960E94200CEACFEA
:101BF00019820E94BF0C68E872E08EE295E10E94B3
:101C0000242380E090E00E94A40CCE0101960E9463
:101C1000560C811110C08EE295E10E94AE1E892BF8
:101C2000A1F38EE295E10E94C71E682FCE010196B6
:101C30000E94200CEACF19820E94BF0C62E772E07A
:101C40008EE295E10E94242380E090E00E94A40CA3
:101C5000CE0101960E94560C811110C08EE295E1D2
:101C60000E94AE1E892BA1F38EE295E10E94C71E51
:101C7000682FCE0101960E94200CEACF19820E94A3
:101C8000BF0C65E672E08EE295E10E94242380E0BD
:101C900090E00E94A40CCE0101960E94560C811186
:101CA00010C08EE295E10E94AE1E892BA1F38EE258
:101CB00095E10E94C71E682FCE0101960E94200C5C
:101CC000EACF19820E94BF0C65E472E08EE295E1D2
:101CD0000E94242380E090E00E94A40CCE01019693
:101CE0000E94560C811110C08EE295E10E94AE1E3A
:101CF000892BA1F38EE295E10E94C71E682FCE01C9
:101D000001960E94200CEACF19820E94BF0C6DE35D
:101D100072E08EE295E10E94242380E090E00E9430
:101D2000A40CCE0101960E94560C811110C08EE2C7
:101D300095E10E94AE1E892BA1F38EE295E10E94EF
:101D4000C71E682FCE0101960E94200CEACF19828F
:101D500060ED77E080E090E00E94311D0E94BF0CB2
:101D600081E0C058DF4F0FB6F894DEBF0FBECDBF85
:101D7000DF91CF911F910F910895CF92DF92EF9253
:101D8000FF920F931F93CF93DF93CDB7DEB7C05E63
:101D9000D1090FB6F894DEBF0FBECDBF8C017B0119
:101DA000CB010E94130C813A910514F080E0F6C03B
:101DB0000E94BF0C63E372E08EE295E10E9424234F
:101DC00084EF91E00E94A40C0E94BF0C65E272E0D7
:101DD0008EE295E10E94242384EF91E00E94A40CFE
:101DE0000E94BF0C65E172E08EE295E10E9424231F
:101DF0006801F80101900020E9F73197E01BF10B31
:101E0000C601801B910B8E179F0768F4D6016D9158
:101E10006D01772767FD709540E150E08EE295E116
:101E20000E943B24E6CF63E172E08EE295E10E94DE
:101E300024236DE070E08EE295E10E944F0C64EF88
:101E400071E080E090E00E94311D00E010E0C701E9
:101E50000E94130C081719070CF066C0F701E00F79
:101E6000F11F6081633C09F053C081818839F1F032
:101E700054F4853841F1863809F047C040E150E01C
:101E80006CE170E03EC0863A59F1883B71F1853AC9
:101E9000E1F54AE050E060E070E08EE295E10E94FA
:101EA0003B2440E150E06FE070E02BC04AE050E09E
:101EB00060E070E08EE295E10E943B2440E150E05A
:101EC0006BE070E01EC04AE050E060E070E08EE23F
:101ED00095E10E943B2440E150E06EE070E011C0CB
:101EE00040E150E06DE170E00CC04AE050E060E09D
:101EF00070E08EE295E10E943B2440E150E06CE00E
:101F000070E08EE295E10E943B240F5F1F4F09C0F5
:101F1000772767FD709540E150E08EE295E10E94E1
:101F20003B240F5F1F4F93CF6AE170E08EE295E193
:101F30000E944F0C80E090E00E94A40C19821A824B
:101F40001B821C82FE0135968CEDDF011D928A9565
:101F5000E9F70BEF10E0CE0101960E94560C8111BB
:101F600019C08EE295E10E94AE1E892B49F08EE2E7
:101F700095E10E94C71E682FCE0101960E94200C99
:101F800064E670E080E090E00E94311D015011098C
:101F900011F70CCFCE0101960E94560CC052DF4FB4
:101FA0000FB6F894DEBF0FBECDBFDF91CF911F916A
:101FB0000F91FF90EF90DF90CF9008950F931F93B4
:101FC000CF93DF93CDB7DEB7C258D1090FB6F894DF
:101FD000DEBF0FBECDBF0E94BF0C6CE072E08EE290
:101FE00095E10E94242384EF91E00E94A40C1982C1
:101FF0001A821B821C82FE0135968CE7DF011D923E
:102000008A95E9F7CF57DF4F19821882C158D0401F
:102010008EE295E10E94AE1E892B51F08EE295E191
:102020000E94C71E682FCE0101960E94200CF0CF9F
:10203000CE0101960E94560C8823F9F0CE0101963C
:102040000E94130C8C01FE013B97E80FF91F608181
:10205000CE018F579F4F0E94200CFE013A97E00F50
:10206000F11F6081CE018F579F4F0E94200CCE013F
:102070008F579F4F0E94380C02C08FEF9FEFCE57B3
:10208000DF4F0FB6F894DEBF0FBECDBFDF91CF910B
:102090001F910F910895AF92BF92CF92DF92EF926E
:1020A000FF920F931F93CF93DF93CDB7DEB7C15647
:1020B000D1090FB6F894DEBF0FBECDBF19821A82C8
:1020C0001B821C82FE0135968CE3DF011D928A95EE
:1020D000E9F7A2961FAE1EAEA2970E94BF0C64EB5A
:1020E00071E08EE295E10E94242380E090E00E945E
:1020F000A40CCE0101960E94560C811110C08EE2F4
:1021000095E10E94AE1E892BA1F38EE295E10E941B
:10211000C71E682FCE0101960E94200CEACFCE0187
:1021200001960E94130C5E01B1E4AB0EB11C28E1D4
:10213000F50111922A95E9F7750100E010E0CC2431
:10214000C394D12CCC0EDD1EC80ED91EC601800F43
:10215000911FFC017D972081A1962FAFA197319609
:102160008081A2968FAFA297CE01805A9F4F0E9486
:10217000492BD7016D937D938D939D937D010D5FC9
:102180001F4F0231110511F7F5018081825EA09683
:102190008FAFA09726968FAD26976F968FAF6F97CC
:1021A0002A968FAD2A976E968FAF6E972E968FAD2B
:1021B0002E976C968FAF6C9762968FAD62976B96E9
:1021C0008FAF6B9766968FAD66976A968FAF6A975B
:1021D000CE01875A9F4F0E94881BCF59DF4F0FB601
:1021E000F894DEBF0FBECDBFDF91CF911F910F914D
:1021F000FF90EF90DF90CF90BF90AF9008959F92A7
:10220000AF92BF92CF92DF92EF92FF920F931F9304
:10221000CF93DF93CDB7DEB7C054D1090FB6F89492
:10222000DEBF0FBECDBF8C015B0119821A821B82FB
:102230001C82FE0135968CE3DF011D928A95E9F739
:102240000E94021D6B017C010E94BF0C65ED71E0D4
:102250008EE295E10E94242380E090E00E94A40C8D
:102260008EE295E10E94391FCE0101960E94560C24
:10227000982E81111DC08EE295E10E94AE1E892B21
:1022800049F08EE295E10E94C71E682FCE010196AB
:102290000E94200C0E94021D6C197D098E099F0965
:1022A00068397A4381059105F8F26BE777E01BC046
:1022B0001982CE0101960E94560C982E811128C0D9
:1022C0008EE295E10E94AE1E892B91F40E94021DC0
:1022D0006C197D098E099F0968397A43810591053A
:1022E00040F361E977E087E593E10E9486239EC091
:1022F0008EE295E10E94C71E682FCE0101960E94D2
:10230000200CCE0101960E94840C8823F9F28EC025
:1023100019820E94BF0C69EC71E08EE295E10E9487
:1023200024234AE050E0B5018EE295E10E943B246F
:1023300080E090E00E94A40CCE0101960E94730CF4
:10234000982E81111DC08EE295E10E94AE1E892B50
:1023500049F08EE295E10E94C71E682FCE010196DA
:102360000E94200C0E94021D6C197D098E099F0994
:1023700068397A4381059105F8F267EA77E0B3CFCF
:1023800019820E94BF0CE0912E15F0912F1502804A
:10239000F381E02DA501B8018EE295E119956AE17E
:1023A00070E08EE295E10E944F0C80E090E00E9488
:1023B000A40C8EE295E10E94391F00E010E0CE01EE
:1023C00001960E94560C982E811125C08EE295E14F
:1023D0000E94AE1E892B89F00F5F1F4F8EE295E1A0
:1023E0000A151B0544F00E94C71E682FCE010196F6
:1023F0000E94200C02C00E94C71E0E94021D6C1980
:102400007D098E099F0968397A4381059105B8F2E3
:102410006DEB77E068CF19826DEB71E08EE295E1AC
:102420000E94242380E090E00E94A40C892DC05CCF
:10243000DF4F0FB6F894DEBF0FBECDBFDF91CF9157
:102440001F910F91FF90EF90DF90CF90BF90AF90D2
:102450009F900895AF92BF92CF92DF92EF92FF923A
:102460000F931F93CF93DF93EC018B017C01E60E5A
:10247000F71E83E6F70180830E944B106093D7120A
:102480007093D8128093D9129093DA129F87888B19
:10249000798B6A8B6801FFEFCF1ADF0AB601CE0194
:1024A0000E9495146093D3127093D4128093D51226
:1024B0009093D6120093D212FE01EC0DFD1D908375
:1024C0008091D512F70182838091D4128383809109
:1024D000D31284836801F5E0CF0ED11C63ED77E061
:1024E00087E593E10E9455236CE479E087E593E169
:1024F0000E94862365EE77E087E593E10E945523ED
:102500008E01E12CF12CF80161918F014AE050E03D
:1025100087E593E10E9468246FEB78E087E593E11B
:102520000E945523FFEFEF1AFF0A8FE0E816F1042F
:1025300051F76CE479E087E593E10E9486236CEE25
:1025400077E087E593E10E9455236FEB78E087E51C
:1025500093E10E9455230FE010E0FE01E00FF11F10
:102560004AE050E0608187E593E10E9468246FEBC8
:1025700078E087E593E10E9455230F5F1F4F0331F9
:10258000110559F76CE479E087E593E10E94862311
:1025900068EF77E087E593E10E9455237E01E3E150
:1025A000EE0EF11C8091D21290E097012C1B3D0B96
:1025B0002817390784F4F70161917F014AE050E060
:1025C00087E593E10E9468246FEB78E087E593E16B
:1025D0000E945523E7CF6CE479E087E593E10E9400
:1025E00086236FEF77E087E593E10E945523809182
:1025F000D212E12CF12C90E08C010F5F1F4F5E0195
:10260000A80EB91E98012E0D3F1DFFEFEF1AFF0A0D
:102610008091D21290E00496821793078CF04AE0E2
:1026200050E0F501EE0DFF1D608187E593E10E940A
:1026300068246FEB78E087E593E10E945523E2CFB1
:102640006CE479E087E593E10E9486236AE078E014
:1026500087E593E10E9486234AE050E0B60187E5D2
:1026600093E10E943B2467E178E087E593E10E94D3
:102670008623B601CE010E94FF10882349F06EE147
:1026800078E087E593E10E9486236CE479E002C05C
:102690006AE378E087E593E1DF91CF911F910F9195
:1026A000FF90EF90DF90CF90BF90AF900C94862377
:1026B000CF93DF93EC01860F911DBC0183EF92E174
:1026C0000E942F2620E030E048E750E0BE0183EF73
:1026D00092E10E944726BE0184E698E00E94BD0E6A
:1026E0006DE678E087E593E10E94552363EF72E1A0
:1026F00087E593E10E94742340EA50E060E070E0D7
:1027000083EF92E1DF91CF910C9471268091F212C8
:10271000882329F08091E6128F5F8093E6128091E2
:10272000F112882329F08091E5128F5F8093E512E2
:102730008091F012882329F08091E4128F5F8093BA
:10274000E4128091EF12882329F08091E3128F5FC9
:102750008093E3128091EE12882329F08091E21297
:102760008F5F8093E2128091ED12882329F080918F
:10277000E1128F5F8093E1128091EC12882329F09F
:102780008091E0128F5F8093E0128091EB1288239A
:1027900029F08091DF128F5F8093DF128091EA121F
:1027A000882329F08091DE128F5F8093DE12809162
:1027B000E912882329F08091DD128F5F8093DD126A
:1027C0008091E812882329F08091DC128F5F80933A
:1027D000DC128091E712882329F08091DB128F5F51
:1027E0008093DB1208958091E612813610F01092EA
:1027F000F2128091E512813610F01092F112809160
:10280000E412813610F01092F0128091E3128136BA
:1028100010F01092EF128091E212813610F01092B7
:10282000EE128091E112813610F01092ED1280913B
:10283000E012813610F01092EC128091DF12813696
:1028400010F01092EB128091DE12813610F010928F
:10285000EA128091DD12813610F01092E912809117
:10286000DC12813610F01092E8128091DB12813672
:1028700010F01092E71208956CE479E083EF92E192
:102880000C94192683EF92E10C94AB250F931F93C0
:10289000242F26272F7034E0239FF0011124EF5DB1
:1028A000FC4F0591159125913491DC01CB0154E049
:1028B000B695A795979587955A95D1F78027912733
:1028C000A227B327E42FE295EF70E827EF7024E00A
:1028D000E29FF0011124EF5DFC4F059115912591C8
:1028E0003491BC01CD01E4E0969587957795679585
:1028F000EA95D1F760277127822793271F910F91BF
:1029000008950F931F93CF93DF938901EA01040F7A
:10291000151FC017D10721F049910E944614F9CF25
:10292000DF91CF911F910F9108959B01AC016FEF43
:102930007FEFCB010E9481146095709580959095F2
:1029400008950895FC0181EA94E1928B818B76834E
:1029500065831482108289E0818381E0828383838E
:102960000895CF93DF93EB0167E0CE010E94681AD0
:1029700091E02F81821390E0892FDF91CF9108950C
:10298000CF92DF92EF92FF920F931F93CF93DF933B
:102990001F921F92CDB7DEB76C01F42EE52EFC011D
:1029A0008581968169837A830E94741869817A810E
:1029B000882311F1F601858196810E946F1940E00C
:1029C0006EEBF601858196810E9411190F2D1E2D47
:1029D00089E0F82EF601858196810E945319F8014D
:1029E00081938F01FA94B1F7F601858196810E9457
:1029F000741891E0813009F090E0892F0F900F90CA
:102A0000DF91CF911F910F91FF90EF90DF90CF90CA
:102A10000895CF93DF93EA010E94C014882351F0F8
:102A200068E0CE010E94681A91E02885821390E048
:102A3000892F01C080E0DF91CF910895EF92FF923E
:102A40000F931F93CF93DF93EC018B017A018D815C
:102A50009E810E947418B8018D819E810E946F1919
:102A600040E06EE48D819E810E94111940E0F701E3
:102A700062818D819E810E94111940E0F70163817E
:102A80008D819E810E941119F8018081803139F079
:102A900040E0F70164818D819E810E9411198D8132
:102AA0009E810E947418B8018D819E810E946F19C9
:102AB000488168E48D819E810E94111964E170E073
:102AC00080E090E00E94311D8881882331F06AE027
:102AD00070E080E090E00E94311D8D819E81DF9149
:102AE000CF911F910F91FF90EF900C947418EF927B
:102AF000FF921F93CF93DF931F921F92CDB7DEB744
:102B00007C01FC018581968169837A830E94741817
:102B100069817A81F701858196810E946F1940E071
:102B200064EBF701858196810E941119F701858177
:102B300096810E94E618182FF701858196810E94E0
:102B4000741881E0111180E00F900F90DF91CF9108
:102B50001F91FF90EF900895EF92FF920F931F93B4
:102B6000CF93DF93CDB7DEB72A970FB6F894DEBFC9
:102B70000FBECDBF7C018B01242FAE014F5F5F4F95
:102B80002A870E9409152A858823D1F0F8018081BF
:102B90008031C1F02B3041F02C3021F02A3031F45B
:102BA0008FE305C08FE703C08FE501C08FE18D8300
:102BB000AE014F5F5F4FB801C7010E941E1502C0F2
:102BC00080E001C081E02A960FB6F894DEBF0FBE08
:102BD000CDBFDF91CF911F910F91FF90EF9008959E
:102BE000CF93DF93CDB7DEB729970FB6F894DEBF4A
:102BF0000FBECDBFFB0120812031D1F0AE014F5F70
:102C00005F4F0E940915882379F08D818F3351F031
:102C100020F48F3149F489E00CC08F3539F08F37BB
:102C200039F002C08AE005C080E003C08BE001C03B
:102C30008CE029960FB6F894DEBF0FBECDBFDF91B2
:102C4000CF910895EF92FF920F931F93CF93DF934D
:102C5000CDB7DEB761970FB6F894DEBF0FBECDBF1C
:102C60008C01FC01858196810E949B19F8011482D8
:102C7000FF24F394BE01665F7F4FF8018581968142
:102C80000E94D0198823C9F1BE01665F7F4FC80139
:102C90000E94B114882371F3F8018081811108C06A
:102CA000BE01665F7F4FC8010E947715811122C067
:102CB000AE014F5F5F4FBE01665F7F4FC8010E944C
:102CC000C014F801E180BE01665F7F4FC8010E9419
:102CD000F0158E1518F4F801818106C0BE01665FFB
:102CE0007F4FC8010E94F015F801818384818F5FB6
:102CF0008483C0CFF801F082DBCF61960FB6F894E1
:102D0000DEBF0FBECDBFDF91CF911F910F91FF901E
:102D1000EF900895CF93DF93CDB7DEB729970FB625
:102D2000F894DEBF0FBECDBFAE014F5F5F4F0E9474
:102D3000C01481E09981911101C080E029960FB6FD
:102D4000F894DEBF0FBECDBFDF91CF9108958F9273
:102D50009F92AF92BF92CF92DF92EF92FF920F932A
:102D60001F93CF93DF93EC018A016950633048F4DD
:102D7000E62FF0E0EE0FFF1FE558F74F80809180BF
:102D800004C09EEE892E92E0992E0115110501F1E5
:102D90008B818823E9F0888181111AC00E94021D6D
:102DA0006B017C01AA2497FCA094BA2CB801CE0137
:102DB0000E948A1681111FC00E94021D681979099C
:102DC0008A099B096C157D058E059F05A0F4EECF41
:102DD000B401882777FD8095982FDF91CF911F91BF
:102DE0000F91FF90EF90DF90CF90BF90AF909F90AA
:102DF0008F900C94311DDF91CF911F910F91FF9017
:102E0000EF90DF90CF90BF90AF909F908F900895FC
:102E1000CF93DF93EC018D819E810E9474188D8188
:102E20009E810E949719488164E48D819E810E9451
:102E300011198A81882341F040E050E06981CE0178
:102E4000DF91CF910C94A716DF91CF910895FA01ED
:102E5000208148E0249F90011124818190E0982FE7
:102E60008827990F990F990F282B392BDB018C910B
:102E70008031C1F4678170E08681AB01481B510944
:102E8000CA019695982F8827979587950E94BF2805
:102E900060517109207F53E0220F331F5A95E1F7EB
:102EA000260F371FC9010895EF92FF920F931F93CA
:102EB000CF93DF93CDB7DEB729970FB6F894DEBF77
:102EC0000FBECDBF8C017B01AE014F5F5F4F0E94F3
:102ED0000915882341F0AE014F5F5F4FB701C8016C
:102EE0000E94271702C080E894EE29960FB6F89446
:102EF000DEBF0FBECDBFDF91CF911F910F91FF902D
:102F0000EF900895813824EE920774F0BC01882771
:102F100077FD8095982F0E94A42720E030E040E0C4
:102F20005CE30E945828089560E070E08EEF92EC18
:102F300008950E9454170C948217CF92DF92EF925B
:102F4000FF92CF93DF93EB0140E050E020E030E0D0
:102F50004C175D074CF4FC0161917191CF01260F74
:102F6000371F4F5F5F4FF4CFB901882777FD8095FA
:102F7000982F0E94A4276B017C01BE01882777FD52
:102F80008095982F0E94A4279B01AC01C701B60130
:102F90000E9409276B017C0120E030E0A9010E941A
:102FA000542820E030E040E05FE387FD05C0C70122
:102FB000B6010E94A12604C0C701B6010E94A02646
:102FC0000E947127CB01DF91CF91FF90EF90DF90AE
:102FD000CF900895AF92BF92CF92DF92EF92FF927F
:102FE0000F931F93CF93DF938B015C01C0E0D0E080
:102FF000C12CD12C7601C017D10774F4F5012191B1
:103000003191419151915F01C701B6010E94A12602
:103010006B017C012196EFCFB801882777FD809561
:10302000982F0E94A4279B01AC01C701B6010E9402
:103030000927DF91CF911F910F91FF90EF90DF90C3
:10304000CF90BF90AF900895CF93DF93FC01EB0139
:103050006230710508F045C02091F9123091FA12E2
:1030600020FD11C06130710589F52F5F3F4F30930E
:10307000FA122093F912D901AA0FBB1FA80FB91F8A
:103080006D937C932EC0C90162E070E00E94BF285E
:103090008130910531F5CD2BC9F42330310564F42D
:1030A0002F5F3F4F3093FA122093F912D901AA0FE4
:1030B000BB1FAE0FBF1F13C02330310539F4109270
:1030C000FA121092F912918380830BC0D901AA0FD2
:1030D000BB1FAE0FBF1F8D919C91119701968D93D1
:1030E0009C93DF91CF910895FF920F931F93CF93FD
:1030F000DF93FC010081C181D281F8948981F02E97
:10310000F0948F21898378941DE7115029F182E092
:1031100090E00E94591D88818023B9F3F8948A8138
:103120008F218A838981802B8983789480EE91E036
:103130000E94591DF89489818F21898386E490E04B
:103140000E94591D8881802311E009F010E07894D5
:103150008AE991E00E94591D812FDF91CF911F9143
:103160000F91FF9008951F93CF93DF93FC0110817F
:10317000C181D281912F909560FF12C0F8948A810D
:1031800089238A838981812B89838AE090E00E9448
:10319000591D8A81812B8A83789487E390E011C03E
:1031A000F8948A8189238A838981812B898381E4A8
:1031B00090E00E94591D8A81812B8A83789485E052
:1031C00090E0DF91CF911F910C94591D0F931F93A5
:1031D000CF93DF93FC011081C181D281F894898162
:1031E000812B89838A81012F009580238A8383E044
:1031F00090E00E94591D8981802389838AE090E0B4
:103200000E94591DC881789485E390E00E94591D61
:103210001C2381E009F480E0DF91CF911F910F9191
:103220000895CF92DF92EF92FF920F931F93CF9367
:10323000DF931F92CDB7DEB76C01E62E08E010E0F9
:10324000FF24F39461E09F2D9E2109F460E0C60104
:1032500049830E94B318FF0C0150110949810115DF
:10326000110581F7411115C0F894D6011196ED9121
:10327000FC91129791818C9180958923818311967D
:10328000ED91FC91129792818C9180958923828394
:1032900078940F90DF91CF911F910F91FF90EF9055
:1032A000DF90CF900895EF92FF920F931F93CF93EB
:1032B000DF938C01C8E0D0E0F12CEE24E394C80148
:1032C0000E94E6188111FE28EE0C2197C1F78F2D80
:1032D000DF91CF911F910F91FF90EF900895CF92C2
:1032E000DF92FF920F931F93CF93DF931F92CDB77F
:1032F000DEB78C01F62E40E065E579830E94111956
:10330000CF2C7981D72E88E0F82EF60161916F01DC
:1033100040E0C8010E941119FA94B9F70F90DF91AB
:10332000CF911F910F91FF90DF90CF90089540E0D3
:103330006CEC0C941119FC0113861586148627E099
:1033400030E0DF01A20FB31F13961C922115310547
:1033500019F021503109F5CF08951F93CF93DF93D2
:10336000EC01162F60E0812F0E943F1E612F70E05C
:10337000FB01E654FB4FE491E883FB01E050FB4F77
:10338000E491F0E0EE0FFF1FEA5BFA4F8591949114
:103390009A838983CE01DF91CF911F910C949B1961
:1033A000AF92BF92CF92DF92EF92FF920F931F9353
:1033B000CF93DF931F92CDB7DEB75C01E62ED72EF9
:1033C000FC01858581115DC0C5010E9474188111C1
:1033D00005C0F5011386158614866EC040E060EFC7
:1033E000C5010E94111901E0F12CC12C11E0C501A9
:1033F0000E94E618682FC50169830E94E61869815A
:10340000613019F48130B9F433C02F2D30E06813E6
:103410001BC0F5018385181730F4E20FF31F838179
:10342000802349F402C0181731F060E0193058F4D5
:10343000F501148708C0F501EF0DF11D8381802B84
:10344000838361E009C0C12EF501E20FF31F838180
:10345000902F909589238383C5010E94B3181F5F25
:10346000000F11F4F39401E0F7E0FF1508F0BFCF6F
:10347000113438F0F501C386C11018C081E085878A
:1034800015C0F50113861586148680E0EE2DFD2DFE
:1034900020E030E0D501A20FB31F13969C919193C9
:1034A0002F5F3F4F28303105A9F706C0F501838112
:1034B000882339F381E0EACF0F90DF91CF911F91FC
:1034C0000F91FF90EF90DF90CF90BF90AF90089555
:1034D000DC0180E0615038F0ED91E827F0E0EF5931
:1034E000FC4F8491F7CF08956DE082E293E10E9452
:1034F000AD1962E273E18FE093E10C94A21461E8EC
:1035000078E087E593E10E9486236CE479E087E523
:1035100093E10E94862360E087E10E94781E61E0CB
:1035200088E10E94781EF89410928000E1E8F0E0B3
:10353000108288E09DE390938900809388008081C9
:1035400088608083808181608083808184608083C3
:10355000EFE6F0E08081826080837894089561E0F6
:1035600088E00E943F1E61E089E00E943F1E61E00A
:1035700087E10E943F1E61E088E10E943F1E60E0FB
:1035800088E10E94781E61E087E10E94781E26E0B3
:1035900040E051EE60E070E087E593E10E94C01FDB
:1035A00026E040E855E260E070E084EF93E10E949D
:1035B000C01F26E040E855E260E070E081E994E158
:1035C0000E94C01F26E040EC52E160E070E08EE215
:1035D00095E10E94C01F65EA78E087E593E10C94CD
:1035E0008623EFE6F0E08081826080830895EFE635
:1035F000F0E080818D7F8083089561EC78E087E53D
:1036000093E10E94552361E088E00E94781E68EEF5
:1036100073E080E090E00E94311D60E088E00E944D
:10362000781E60E27EE480E090E00E94311D62ED51
:1036300078E087E593E10E9486236BEE78E087E5EA
:1036400093E10E9455230E94CC0C882339F063E05B
:1036500079E087E593E10E94862306C061E674E085
:1036600087E593E10E9462236CE179E087E593E1CD
:103670000E9455230E94DE0F4AE050E0BC0187E51E
:1036800093E10C9443248FE093E10E94221649E0D9
:1036900060EE75E08FE093E10E94AC1549E068EDC3
:1036A00075E08FE093E10E94AC1549E060ED75E0B4
:1036B0008FE093E10E94AC1549E068EC75E08FE083
:1036C00093E10E94AC158CE00E94C61D90933513C7
:1036D000809334138DE00E94C61D90933313809322
:1036E000321320913413309135132130324020F0C1
:1036F00021E02093311302C01092311381309240A7
:1037000020F081E0809330130895109230130895D3
:103710006F927F928F929F92AF92BF92CF92DF92E1
:10372000EF92FF920F931F93CF93DF93FC01C6801C
:10373000AC2DB0E020E833E341EE51E00E940A29CD
:103740004B015C0122EB37E06D01C4E6D0E000E9FB
:1037500011E0C901825B97408C159D05DCF4C9011D
:1037600083709927892B99F4C901BE010E94BF2853
:10377000892B31F4C901B8010E94BF28892B39F483
:1037800080E8880E81E5981E81E0A81EB11C2F5F9D
:103790003F4FDFCF6580712C8EE4C81A88EFD80ABE
:1037A000C60164E670E00E94BF288C01C60160E992
:1037B00071E00E94BF287C01C1E0D0E083E0C82214
:1037C000DD24C615D7052CF5C230D10589F4C11406
:1037D000D10471F40115110519F4E114F10441F457
:1037E00080E8880E8BE3981E86E2A81EB11C0FC0ED
:1037F000DE01A35DB64FAC91B0E020E831E541E0D9
:1038000050E00E940A29860E971EA81EB91E219616
:10381000D8CF218130E0ACE3B0E00E94FB286B01FF
:103820007C01228130E0A0E1BEE00E94FB28C60EB0
:10383000D71EE81EF91EA481B0E0119720E831E5FB
:1038400041E050E00E941529C60ED71EE81EF91E61
:10385000C80CD91CEA1CFB1C8081C80ED11CE11CC1
:10386000F11CC701B601DF91CF911F910F91FF901D
:10387000EF90DF90CF90BF90AF909F908F907F9010
:103880006F9008950F931F93CF93DF9362E070E0E2
:1038900084EF93E10E944F0C84EF93E10E94AE1EEF
:1038A00018161906BCF08AE393E10E94452B20E02C
:1038B00030E040E252E40E9458286093361370933F
:1038C00037138093381390933913DF91CF911F9161
:1038D0000F91089584EF93E10E94AE1E8C01CAE31C
:1038E000D3E1CE018A53934180179107E4F684EF28
:1038F00093E10E94C71E8993F4CF0F931F93CF9338
:10390000DF9362E070E081E994E10E944F0C81E96D
:1039100094E10E94AE1E18161906BCF086E493E1ED
:103920000E94452B20E030E040E252E40E945828FB
:103930006093421370934313809344139093451301
:10394000DF91CF911F910F91089581E994E10E9439
:10395000AE1E8C01C6E4D3E1CE018654934180179C
:103960009107E4F681E994E10E94C71E8993F4CFA0
:103970001F920F920FB60F9211242F933F938F93A4
:103980009F93AF93BF9380914F1390915013A09149
:103990005113B091521330914E1323E0230F2D3762
:1039A00020F40196A11DB11D05C026E8230F029643
:1039B000A11DB11D20934E1380934F13909350136C
:1039C000A0935113B09352138091531390915413B9
:1039D000A0915513B09156130196A11DB11D80936E
:1039E000531390935413A0935513B0935613BF9150
:1039F000AF919F918F913F912F910F900FBE0F909C
:103A00001F9018952FB7F89460914F137091501331
:103A100080915113909152132FBF08953FB7F8949E
:103A20008091531390915413A0915513B091561354
:103A300026B5A89B05C02F3F19F00196A11DB11D09
:103A40003FBF6627782F892F9A2F620F711D811D26
:103A5000911D42E0660F771F881F991F4A95D1F785
:103A60000895CF92DF92EF92FF92CF93DF936B0195
:103A70007C010E940E1DEB01C114D104E104F1048C
:103A800089F00E949F260E940E1D6C1B7D0B683ED4
:103A9000734090F381E0C81AD108E108F108C851D9
:103AA000DC4FEACFDF91CF91FF90EF90DF90CF9086
:103AB00008958230910538F0880F991F880F991F5B
:103AC00005970197F1F70895789484B5826084BDD5
:103AD00084B5816084BD85B5826085BD85B5816012
:103AE00085BDEEE6F0E0808181608083E1E8F0E072
:103AF0001082808182608083808181608083E0E8A1
:103B0000F0E0808181608083E1EBF0E0808184607F
:103B10008083E0EBF0E0808181608083E1E9F0E088
:103B2000808182608083808181608083E0E9F0E031
:103B3000808181608083E1EAF0E08081826080831F
:103B4000808181608083E0EAF0E080818160808311
:103B5000E1E2F1E080818260808380818160808306
:103B6000E0E2F1E0808181608083EAE7F0E080813B
:103B70008460808380818260808380818160808393
:103B80008081806880831092C1000895863308F098
:103B9000865320917B00982F9870277F922B9093CB
:103BA0007B0087702091E80590E4299F9001112403
:103BB000822B80937C0080917A00806480937A00CD
:103BC00080917A0086FDFCCF809178002091790069
:103BD00090E0922B089590E0FC013197E231F105DD
:103BE00008F04CC0EE58FF4F0C94F52880918000EF
:103BF0008F7703C0809180008F7D8093800008952F
:103C000080918000877FF9CF84B58F7702C084B51B
:103C10008F7D84BD08958091B0008F7703C080911F
:103C2000B0008F7D8093B0000895809190008F77D1
:103C300007C0809190008F7D03C080919000877FA6
:103C40008093900008958091A0008F7707C08091A5
:103C5000A0008F7D03C08091A000877F8093A0008B
:103C60000895809120018F7707C0809120018F7D7A
:103C700003C080912001877F809320010895CF9316
:103C8000DF9390E0FC01E654FB4F2491FC01E050EF
:103C9000FB4F8491882349F190E0880F991FFC0124
:103CA000E658FA4FA591B491805A9A4FFC01C591FC
:103CB000D4919FB7611108C0F8948C91209582230C
:103CC0008C93888182230AC0623051F4F8948C91DD
:103CD000322F309583238C938881822B888304C074
:103CE000F8948C91822B8C939FBFDF91CF91089594
:103CF0000F931F93CF93DF931F92CDB7DEB7282F7B
:103D000030E0F901EC58FB4F8491F901E654FB4F88
:103D10001491F901E050FB4F04910023C9F088236E
:103D200021F069830E94EB1D6981E02FF0E0EE0F26
:103D3000FF1FE05AFA4FA591B4919FB7F8948C9168
:103D4000611103C01095812301C0812B8C939FBF0B
:103D50000F90DF91CF911F910F910895FC01818DFC
:103D6000228D90E0805C9F4F821B91098F73992771
:103D70000895FC01918D828D981731F0828DE80FA6
:103D8000F11D858D90E008958FEF9FEF0895FC0160
:103D9000918D828D981761F0828DDF01A80FB11D82
:103DA0005D968C91928D9F5F9F73928F90E00895A6
:103DB0008FEF9FEF089582E890E2892B41F080E039
:103DC00090E0892B21F00E948220811125C08FE292
:103DD00091E2892B41F080E090E0892B21F00E9454
:103DE0002F2181111CC08CED91E2892B41F080E0E4
:103DF00090E0892B21F00E94DC21811113C089E819
:103E000092E2892BA1F080E090E0892B81F00E9462
:103E1000892281110AC008950E940000D8CF0E9413
:103E20000000E1CF0E940000EACF0C94000008954A
:103E3000FC01848DDF01A80FB11DA35ABF4F2C9147
:103E4000848D90E001968F739927848FA689B78916
:103E50002C93A089B1898C9180648C93938D848DEF
:103E6000981306C00288F389E02D80818F7D8083BE
:103E70000895CF93DF93EC01888D8823C9F0EA89F8
:103E8000FB89808185FD05C0A889B9898C9186FD53
:103E90000FC00FB607FCF5CF808185FFF2CFA88950
:103EA000B9898C9185FFEDCFCE010E94181FE7CF15
:103EB000DF91CF910895CF92DF92FF920F931F93DE
:103EC000CF93DF931F92CDB7DEB76C0181E0D601AF
:103ED00058968C9358975B969C915B975C968C91C7
:103EE0005C97981307C05096ED91FC915197808193
:103EF00085FD2EC0F601038D10E00F5F1F4F0F737D
:103F00001127F02EF601848DF81211C00FB607FCB0
:103F1000F9CFD6015096ED91FC915197808185FFA4
:103F2000F1CFC60169830E94181F6981EBCF838D91
:103F3000E80FF11DE35AFF4F6083D6015B960C93A7
:103F40005B975296ED91FC915397808180620CC0F3
:103F5000D6015696ED91FC91579760835096ED915E
:103F6000FC91519780818064808381E090E00F9084
:103F7000DF91CF911F910F91FF90DF90CF90089527
:103F8000BF92CF92DF92EF92FF92CF93DF93EC013B
:103F90006A017B01B22EE889F98982E080834115AC
:103FA00081EE580761057105A1F060E079E08DE3CD
:103FB00090E0A70196010E94D328215031094109C0
:103FC00051095695479537952795211580E1380772
:103FD00098F0E889F989108260E874E88EE190E051
:103FE000A70196010E94D3282150310941095109A6
:103FF0005695479537952795EC85FD853083EE8559
:10400000FF852083188EEC89FD89B082EA89FB89BF
:10401000808180618083EA89FB89808188608083D8
:10402000EA89FB89808180688083EA89FB898081B5
:104030008F7D8083DF91CF91FF90EF90DF90CF90C5
:10404000BF9008951F920F920FB60F9211240BB6D6
:104050000F922F938F939F93EF93FF93E0916713AA
:10406000F09168138081E0916D13F0916E1382FDE1
:1040700012C09081809170138F5F8F7320917113A4
:10408000821751F0E0917013F0E0E95AFC4E958FE1
:104090008093701301C08081FF91EF919F918F9168
:1040A0002F910F900BBE0F900FBE0F901F90189581
:1040B0001F920F920FB60F9211240BB60F922F93EF
:1040C0003F934F935F936F937F938F939F93AF93A0
:1040D000BF93EF93FF9387E593E10E94181FFF9131
:1040E000EF91BF91AF919F918F917F916F915F9170
:1040F0004F913F912F910F900BBE0F900FBE0F90DD
:104100001F90189587E593E10E94AE1E21E0892B50
:1041100009F420E0822F089510925A131092591337
:1041200088EE93E0A0E0B0E080935B1390935C1383
:10413000A0935D13B0935E138EE399E090935813B0
:104140008093571385EC90E09093641380936313EE
:1041500084EC90E0909366138093651380EC90E07C
:10416000909368138093671381EC90E090936A13A7
:104170008093691382EC90E090936C1380936B139F
:1041800086EC90E090936E1380936D1310927013F1
:1041900010927113109272131092731308951F925C
:1041A0000F920FB60F9211240BB60F922F938F938D
:1041B0009F93EF93FF93E0910414F0910514808195
:1041C000E0910A14F0910B1482FD12C0908180914D
:1041D0000D148F5F8F7320910E14821751F0E091B0
:1041E0000D14F0E0EC50FC4E958F80930D1401C03F
:1041F0008081FF91EF919F918F912F910F900BBE36
:104200000F900FBE0F901F9018951F920F920FB630
:104210000F9211240BB60F922F933F934F935F93FE
:104220006F937F938F939F93AF93BF93EF93FF937E
:1042300084EF93E10E94181FFF91EF91BF91AF911E
:104240009F918F917F916F915F914F913F912F91AE
:104250000F900BBE0F900FBE0F901F90189584EF1C
:1042600093E10E94AE1E21E0892B09F420E0822F09
:1042700008951092F7131092F61388EE93E0A0E0E1
:10428000B0E08093F8139093F913A093FA13B093CE
:10429000FB138EE399E09093F5138093F4138DEC68
:1042A00090E090930114809300148CEC90E0909334
:1042B00003148093021488EC90E09093051480938B
:1042C000041489EC90E090930714809306148AEC10
:1042D00090E090930914809308148EEC90E09093F2
:1042E0000B1480930A1410920D1410920E14109255
:1042F0000F141092101408951F920F920FB60F9280
:1043000011240BB60F922F938F939F93EF93FF93EC
:10431000E091A114F091A2148081E091A714F09192
:10432000A81482FD12C090818091AA148F5F8F73B0
:104330002091AB14821751F0E091AA14F0E0EF56EF
:10434000FB4E958F8093AA1401C08081FF91EF915D
:104350009F918F912F910F900BBE0F900FBE0F90DA
:104360001F9018951F920F920FB60F9211240BB643
:104370000F922F933F934F935F936F937F938F93FE
:104380009F93AF93BF93EF93FF9381E994E10E94D2
:10439000181FFF91EF91BF91AF919F918F917F91E6
:1043A0006F915F914F913F912F910F900BBE0F90A6
:1043B0000FBE0F901F90189581E994E10E94AE1EE8
:1043C00021E0892B09F420E0822F089510929414A3
:1043D0001092931488EE93E0A0E0B0E080939514DF
:1043E00090939614A0939714B09398148EE399E049
:1043F000909392148093911485ED90E090939E1485
:1044000080939D1484ED90E09093A01480939F146A
:1044100080ED90E09093A2148093A11481ED90E040
:104420009093A4148093A31482ED90E09093A6142B
:104430008093A51486ED90E09093A8148093A71420
:104440001092AA141092AB141092AC141092AD14E6
:1044500008951F920F920FB60F9211240BB60F9270
:104460002F938F939F93EF93FF93E0913E15F091DD
:104470003F158081E0914415F091451582FD12C0F1
:104480009081809147158F5F8F7320914815821717
:1044900051F0E0914715F0E0E25DFA4E958F809380
:1044A000471501C08081FF91EF919F918F912F91CE
:1044B0000F900BBE0F900FBE0F901F9018951F927C
:1044C0000F920FB60F9211240BB60F922F933F93BA
:1044D0004F935F936F937F938F939F93AF93BF930C
:1044E000EF93FF938EE295E10E94181FFF91EF91E9
:1044F000BF91AF919F918F917F916F915F914F91FC
:104500003F912F910F900BBE0F900FBE0F901F90F9
:1045100018958EE295E10E94AE1E21E0892B09F4E8
:1045200020E0822F0895109231151092301588EEF8
:1045300093E0A0E0B0E08093321590933315A09300
:104540003415B09335158EE399E090932F15809331
:104550002E1585E391E090933B1580933A1584E303
:1045600091E090933D1580933C1580E391E090930A
:104570003F1580933E1581E391E090934115809320
:10458000401582E391E0909343158093421586E3B2
:1045900091E0909345158093441510924715109221
:1045A00048151092491510924A15089508950E94D1
:1045B000641D0E94D6220E942303CBEDDEE10E94FF
:1045C000CD092097E1F30E94DB1EF9CFCF92DF9255
:1045D000EF92FF920F931F93CF93DF937C016A01B9
:1045E000EB0100E010E00C151D0571F06991D70199
:1045F000ED91FC910190F081E02DC7011995892B77
:1046000019F00F5F1F4FEFCFC801DF91CF911F91BE
:104610000F91FF90EF90DF90CF9008956115710595
:1046200081F0DB010D900020E9F7AD014150510907
:10463000461B570BDC01ED91FC910280F381E02DCC
:10464000199480E090E00895EF92FF920F931F93EA
:10465000CF93DF938C017B01C0E0D0E0F701EC0F3A
:10466000FD1F6491662359F0F801A081B181ED919D
:10467000FC91C8011995892B11F02196EFCFCE013D
:10468000DF91CF911F910F91FF90EF900895DC0182
:10469000ED91FC91DB0114964D915C9115976D9114
:1046A0007C910280F381E02D19940C940E23DC019F
:1046B000ED91FC910190F081E02D19946AE479E08C
:1046C0000C940E230F931F93CF93DF93EC010E9462
:1046D00024238C01CE010E945E23800F911FDF9165
:1046E000CF911F910F9108950F931F93CF93DF9355
:1046F000EC010E9447238C01CE010E945E23800FB3
:10470000911FDF91CF911F910F9108950F931F93E8
:10471000CF93DF93EC010E940E238C01CE010E9407
:104720005E23800F911FDF91CF911F910F9108950C
:104730008F929F92AF92BF92CF92DF92EF92FF92B1
:104740000F931F93CF93DF93CDB7DEB7A1970FB62B
:10475000F894DEBF0FBECDBF7C01C42EE52FCB0188
:10476000D22E19A221E02D1510F02AE0D22E8E01B2
:104770000F5D1F4F8D2C912CA12CB12C6C2D7E2FF9
:10478000A50194010E94D3288C2DD29E801911245A
:10479000015011098A3014F4805D01C0895CF80170
:1047A0008083211531054105510521F0C22EE32FEB
:1047B000CA01E4CFB801C7010E940E23A1960FB62B
:1047C000F894DEBF0FBECDBFDF91CF911F910F9147
:1047D000FF90EF90DF90CF90BF90AF909F908F9021
:1047E0000895CF92DF92EF92FF920F931F93CF9392
:1047F000DF93EC016A017B012115310579F4E88131
:10480000F9810190F081E02D642FDF91CF911F910C
:104810000F91FF90EF90DF90CF9019942A303105DF
:10482000E9F477FF1AC06DE20E9457238C014427F8
:104830005527BA014C195D096E097F092AE0CE019E
:104840000E949823800F911FDF91CF911F910F91AC
:10485000FF90EF90DF90CF9008952AE0B701A60176
:10486000CE01DF91CF911F910F91FF90EF90DF90DC
:10487000CF900C9498239A01AB01662757FD609561
:10488000762F0C94F1230F931F93CF93DF93EC01BA
:104890009A01AB01662757FD6095762F0E94F123A0
:1048A0008C01CE010E945E23800F911FDF91CF917A
:1048B0001F910F9108952115310541F4DC01ED910F
:1048C000FC910190F081E02D642F19940C949823B1
:1048D0009A01462F50E060E070E00C945B240F9347
:1048E0001F93CF93DF93EC019A01462F50E060E0D5
:1048F00070E00E945B248C01CE010E945E23800F39
:10490000911FDF91CF911F910F9108950F931F93E6
:10491000CF93DF93EC019A01AB0160E070E00E945D
:104920005B248C01CE010E945E23800F911FDF91DA
:10493000CF911F910F9108950F931F93CF93DF9302
:10494000EC010E945B248C01CE010E945E23800F4B
:10495000911FDF91CF911F910F9108954F925F9218
:104960006F927F928F929F92AF92BF92CF92DF927F
:10497000EF92FF920F931F93CF93DF93EC016A01A5
:104980007B01B22E9A01AB01C701B6010E94BB2880
:10499000882319F06DE479E027C026013701E894F7
:1049A00077F82FEF3FEF4FE75FE7C301B2010E94B7
:1049B000BB2881110DC02FEF3FEF4FE75FE7C30129
:1049C000B2010E94052718161CF461E579E00CC0BD
:1049D0002FEF3FEF4FE75FE4C701B6010E94542875
:1049E0001816ACF465E579E0CE01DF91CF911F9107
:1049F0000F91FF90EF90DF90CF90BF90AF909F907E
:104A00008F907F906F905F904F900C940E232FEFBC
:104A10003FEF4FE75FECC701B6010E94052787FD16
:104A2000E1CF20E030E0A901C701B6010E940527CF
:104A300087FF0AC06DE2CE010E9457238C01F7FA6E
:104A4000F094F7F8F09402C000E010E0A12C60E0D0
:104A500070E080E09FE3AB1441F020E030E040E202
:104A600051E40E940927A394F6CF9B01AC01C70132
:104A7000B6010E94A1266B017C010E9476272B01C2
:104A80003C010E94A2279B01AC01C701B6010E9414
:104A9000A0266B017C012AE0B301A201CE010E9495
:104AA0009823080F191FBB2039F060ED78E0CE0184
:104AB0000E940E23080F191F7B2C772041F120E064
:104AC00030E040E251E4C701B6010E9458286B0172
:104AD0007C010E9471274B01AA2497FCA094BA2C58
:104AE0002AE030E0B501A401CE010E94F123080FB5
:104AF000191FC501B4010E94A4279B01AC01C70185
:104B0000B6010E94A0266B017C017A94D6CFC80121
:104B1000DF91CF911F910F91FF90EF90DF90CF9099
:104B2000BF90AF909F908F907F906F905F904F90CD
:104B300008950F931F93CF93DF93EC010E94AE244F
:104B40008C01CE010E945E23800F911FDF91CF91D7
:104B50001F910F910895FC01808191810C94CD29C2
:104B6000CF93DF93EC0188819981009711F00E9427
:104B7000CD29198218821D821C821B821A82DF9124
:104B8000CF9108950F931F93CF93DF93EC018B0187
:104B90006F5F7F4F888199810E945C2A009731F076
:104BA000998388831B830A8381E001C080E0DF91C1
:104BB000CF911F910F910895CF93DF93EC018881DE
:104BC0009981892B29F08A819B818617970760F448
:104BD000CE010E94C225882341F08C819D81892BC2
:104BE00019F4E881F981108281E0DF91CF91089575
:104BF000EF92FF920F931F93CF93DF93EC017B0112
:104C00008A01BA010E94DC25811104C0CE010E94F4
:104C1000B02507C01D830C83B701888199810E944C
:104C2000812BCE01DF91CF911F910F91FF90EF90DB
:104C30000895FC011182108213821282158214825F
:104C40006115710559F0FB0101900020E9F7AF01F2
:104C500041505109461B570B0C94F8250895CF93EA
:104C6000DF93EC016115710561F0FB0101900020FB
:104C7000E9F7AF0141505109461B570B0E94F82537
:104C800002C00E94B025CE01DF91CF9108950F930D
:104C90001F93CF93DF93EB0141155105E9F0209766
:104CA000D9F0FC016481758126173707A0F4621BD7
:104CB000730B8A01015011096017710708F48B0109
:104CC000FC0160817181620F731FA801CE010E94F7
:104CD000882BC00FD11F1882DF91CF911F910F91A8
:104CE0000895CF93DF93EC01CB012C813D816217B6
:104CF000730710F541155105F9F0B901681B790BDF
:104D00004617570708F4BA01E881F981261B370BCB
:104D10003D832C83A901481B590B680F791F6E0F27
:104D20007F1F8E0F9F1F0E94882BE881F9818C8145
:104D30009D81E80FF91F1082DF91CF9108950895AA
:104D40005058BB27AA270ED075C166D130F06BD161
:104D500020F031F49F3F11F41EF45BC10EF4E09596
:104D6000E7FB51C1E92F77D180F3BA1762077307C8
:104D70008407950718F071F49EF58FC10EF4E09545
:104D80000B2EBA2FA02D0B01B90190010C01CA0105
:104D9000A0011124FF27591B99F0593F50F4503EB0
:104DA00068F11A16F040A22F232F342F4427585FA2
:104DB000F3CF469537952795A795F0405395C9F7BA
:104DC0007EF41F16BA0B620B730B840BBAF0915072
:104DD000A1F0FF0FBB1F661F771F881FC2F70EC011
:104DE000BA0F621F731F841F48F4879577956795E4
:104DF000B795F7959E3F08F0B3CF9395880F08F0CD
:104E00009927EE0F979587950895D9D008F481E0FA
:104E100008950CD00FC107D140F0FED030F021F43E
:104E20005F3F19F0F0C0511139C1F3C014D198F3AC
:104E30009923C9F35523B1F3951B550BBB27AA271B
:104E400062177307840738F09F5F5F4F220F331F8D
:104E5000441FAA1FA9F333D00E2E3AF0E0E830D059
:104E600091505040E695001CCAF729D0FE2F27D05C
:104E7000660F771F881FBB1F261737074807AB072A
:104E8000B0E809F0BB0B802DBF01FF2793585F4F9F
:104E90002AF09E3F510568F0B6C000C15F3FECF3B9
:104EA000983EDCF3869577956795B795F7959F5F64
:104EB000C9F7880F911D9695879597F90895E1E0B8
:104EC000660F771F881FBB1F621773078407BA0717
:104ED00020F0621B730B840BBA0BEE1F88F7E09572
:104EE000089504D06894B111D9C00895BCD088F059
:104EF0009F5790F0B92F9927B751A0F0D1F0660FC6
:104F0000771F881F991F1AF0BA95C9F712C0B130E0
:104F100081F0C3D0B1E00895C0C0672F782F8827F3
:104F2000B85F39F0B93FCCF3869577956795B3951F
:104F3000D9F73EF490958095709561957F4F8F4F8E
:104F40009F4F0895E89409C097FB3EF49095809593
:104F5000709561957F4F8F4F9F4F9923A9F0F92F3F
:104F600096E9BB279395F695879577956795B795BD
:104F7000F111F8CFFAF4BB0F11F460FF1BC06F5FA3
:104F80007F4F8F4F9F4F16C0882311F096E911C0B5
:104F9000772321F09EE8872F762F05C0662371F0D6
:104FA00096E8862F70E060E02AF09A95660F771FEA
:104FB000881FDAF7880F9695879597F90895990FC6
:104FC0000008550FAA0BE0E8FEEF16161706E807D3
:104FD000F907C0F012161306E407F50798F0621BF4
:104FE000730B840B950B39F40A2661F0232B242BC9
:104FF000252B21F408950A2609F4A140A6958FEFE8
:10500000811D811D089597F99F6780E870E060E039
:1050100008959FEF80EC089500240A941616170651
:1050200018060906089500240A9412161306140699
:1050300005060895092E0394000C11F4882352F0FC
:10504000BB0F40F4BF2B11F460FF04C06F5F7F4FB4
:105050008F4F9F4F089557FD9058440F551F59F09B
:105060005F3F71F04795880F97FB991F61F09F3F55
:1050700079F087950895121613061406551FF2CF7E
:105080004695F1DF08C0161617061806991FF1CFCE
:1050900086957105610508940895E894BB276627F5
:1050A0007727CB0197F908958ADF08F48FEF0895E9
:1050B0000BD0C0CFB1DF28F0B6DF18F0952309F090
:1050C000A2CFA7CF1124EACFC6DFA0F3959FD1F3DB
:1050D000950F50E0551F629FF001729FBB27F00DA6
:1050E000B11D639FAA27F00DB11DAA1F649F6627FB
:1050F000B00DA11D661F829F2227B00DA11D621F4A
:10510000739FB00DA11D621F839FA00D611D221F03
:10511000749F3327A00D611D231F849F600D211DE7
:10512000822F762F6A2F11249F5750408AF0E1F08A
:1051300088234AF0EE0FFF1FBB1F661F771F881FD3
:1051400091505040A9F79E3F510570F05CCFA6CF1B
:105150005F3FECF3983EDCF3869577956795B795BE
:10516000F795E7959F5FC1F7FE2B880F911D9695E8
:10517000879597F9089523DF880B990B089597FB7E
:10518000072E16F4009407D077FD09D00E9421293C
:1051900007FC05D03EF4909581959F4F089570953A
:1051A00061957F4F0895A1E21A2EAA1BBB1BFD013A
:1051B0000DC0AA1FBB1FEE1FFF1FA217B307E407F6
:1051C000F50720F0A21BB30BE40BF50B661F771F4E
:1051D000881F991F1A9469F760957095809590952E
:1051E0009B01AC01BD01CF010895EE0FFF1F05909B
:1051F000F491E02D1994A29FB001B39FC001A39F29
:10520000700D811D1124911DB29F700D811D1124FF
:10521000911D08950E94FB28A59F900DB49F900DAD
:10522000A49F800D911D11240895B7FF0C940A29A5
:105230000E940A29821B930B08950790F691E02D96
:105240001994AA1BBB1B51E107C0AA1FBB1FA617BD
:10525000B70710F0A61BB70B881F991F5A95A9F71F
:1052600080959095BC01CD010895CF93DF93823056
:10527000910510F482E090E0E091CD15F091CE150B
:1052800020E030E0A0E0B0E0309739F1408151817A
:1052900048175907B8F04817590771F4828193816C
:1052A000109729F013969C938E9312972CC090938D
:1052B000CE158093CD1527C02115310531F0421749
:1052C000530718F0A901DB0101C0EF019A01BD01EC
:1052D000DF010280F381E02DD7CF21153105F9F0F0
:1052E000281B390B2430310580F48A819B8161159C
:1052F000710521F0FB019383828304C09093CE1546
:105300008093CD15FE01329644C0FE01E20FF31FDB
:105310008193919322503109398328833AC0209197
:10532000CB153091CC15232B41F420910202309102
:1053300003023093CC152093CB15209100023091BD
:1053400001022115310541F42DB73EB74091040209
:1053500050910502241B350BE091CB15F091CC1533
:10536000E217F307A0F42E1B3F0B2817390778F03C
:10537000AC014E5F5F4F2417350748F04E0F5F1F9B
:105380005093CC154093CB158193919302C0E0E0EC
:10539000F0E0CF01DF91CF910895CF93DF93009795
:1053A00009F487C0FC01329713821282C091CD1597
:1053B000D091CE15209781F420813181280F391F9B
:1053C0008091CB159091CC158217930779F5F093C6
:1053D000CC15E093CB156DC0DE0120E030E0AE17B8
:1053E000BF0750F412964D915C9113979D014115A2
:1053F000510509F1DA01F3CFB383A28340815181D2
:10540000840F951F8A179B0771F48D919C911197BA
:10541000840F951F02969183808312968D919C91A3
:105420001397938382832115310529F4F093CE15C8
:10543000E093CD153EC0D9011396FC93EE931297DD
:105440004D915D91A40FB51FEA17FB0779F4808198
:105450009181840F951F0296D90111969C938E938A
:105460008281938113969C938E931297E0E0F0E0F3
:105470008A819B81009719F0FE01EC01F9CFCE01E2
:10548000029628813981820F931F2091CB1530918C
:10549000CC152817390769F4309729F41092CE15E6
:1054A0001092CD1502C013821282D093CC15C093F6
:1054B000CB15DF91CF9108956F927F928F929F923B
:1054C000AF92BF92CF92DF92EF92FF920F931F9312
:1054D000CF93DF93EC01CB01209781F4DF91CF9143
:1054E0001F910F91FF90EF90DF90CF90BF90AF9002
:1054F0009F908F907F906F900C943529FE01E60F5E
:10550000F71F9E0122503109E217F30708F4ACC0DF
:10551000D9010D911C91119706171707B8F00530A6
:10552000110508F49FC0A8014450510946175707B8
:1055300008F498C002501109061B170B0193119330
:105540006D937C93CF010E94CD298CC05B01A01A82
:10555000B10A4E01800E911EA091CD15B091CE15CD
:10556000612C712C60E070E0109709F449C0A81517
:10557000B905C9F5ED90FC901197670142E0C40EA2
:10558000D11CCA14DB0478F147018A189B08640116
:1055900042E0C40ED11C1296BC9012971396AC91A7
:1055A000B5E0CB16D10440F0B282A3839182808211
:1055B000D9018D939C9309C00E5F1F4F0E0D1F1DC7
:1055C000F90111830083EB2DFA2F6115710531F07C
:1055D000DB011396FC93EE93129744C0F093CE1523
:1055E000E093CD153FC06D917C91119766167706BB
:1055F00008F43B01BD0112960D90BC91A02DB4CFD3
:105600006091CB157091CC1568157905E9F4681691
:105610007906D0F4409100025091010241155105E4
:1056200041F44DB75EB76091040270910502461BCC
:10563000570BE417F507C0F4F093CC15E093CB15A6
:10564000F901918380830EC00E9435297C01009767
:1056500059F0A801BE010E94782BCE010E94CD29ED
:10566000C70104C0CE0102C080E090E0DF91CF917D
:105670001F910F91FF90EF90DF90CF90BF90AF9070
:105680009F908F907F906F900895662777270C9456
:10569000AC2B1F93FC0199278827BC01E89411913A
:1056A0001032E9F3193010F01E30C8F31B3251F0FC
:1056B0001D3249F4689406C00E94972B610F711D3A
:1056C000811D911D119110531A30B0F33EF4909545
:1056D0008095709561957F4F8F4F9F4F1F910895D3
:1056E0009111ABC1803219F089508550D0F70895DF
:1056F000FB01DC0102C001900D9241505040D8F7EF
:105700000895FB01DC0101900D920020E1F708955E
:10571000FB01DC014150504048F001900D92002007
:10572000C9F701C01D9241505040E0F70895592F2C
:10573000482F372F262F660F771F881F991F660F58
:10574000771F881F991F620F731F841F951F660F95
:10575000771F881F991F08958F929F92AF92BF92D3
:10576000CF92DF92EF92FF920F931F93CF93DF932D
:105770008B016115710521F0DB018C9311969C93CF
:10578000EC015E01BFEFAB1ABB0A7501C8808C2D1E
:1057900090E00E94702B892B11F0E501F2CFEDE231
:1057A000CE1208C07E01F2E0EF0EF11CC980DD24AC
:1057B000D39409C02BE2C21205C07E0142E0E40E80
:1057C000F11CC980D12CE701219743E050E06CE93E
:1057D00075E0CE010E94202D892BC1F4239645E06F
:1057E00050E067E975E0CE010E94202D892B09F475
:1057F00025960115110519F0D801CD93DC93D11030
:1058000006C160E070E080E89FE70AC143E050E035
:1058100064E975E0CE010E94202D892B59F4011511
:10582000110509F4F9C0B2E0EB0EF11CF801F182A8
:10583000E082F2C0F70160E070E0CB01C0E0D0E0B0
:105840007F01A0EDAA2EAC0C29E02A1530F14D2DD8
:105850004260B42E2D2D2870D2FE04C0211125C027
:10586000219623C021112197A5E0B0E09B01AC0156
:105870000E940A29660F771F881F991F6A0D711DE4
:10588000811D911D6839A9E97A078A07A9E19A075C
:1058900060F0BD2DB660BB2E08C02EEFA2120AC06C
:1058A000D3FC50C04D2D4860B42E3196D701CC901A
:1058B000DB2CC6CF2C2D2F7D253409F043C0A081D1
:1058C000AD3241F4BD2DB061DB2E7F0122E0E20E4E
:1058D000F11C0CC07F01AB3231F04FEFE41AF40A37
:1058E00021E030E006C0A2E0EA0EF11CA18122E036
:1058F00030E0A053AA3018F0E21AF30A23C0F701EF
:1059000020E030E02038BCE03B075CF4A901440F04
:10591000551F440F551F240F351F220F331F2A0F09
:10592000311DAF014F5F5F4F7A01A081A053AA30B4
:1059300010F4FA01E7CFD4FE03C031952195310967
:10594000C20FD31FD1FE09C00115110531F0E1E0EE
:10595000EE1AF108D801ED92FC920E94A2272D2D9B
:105960002370233019F04B015C0106C04B015C0130
:10597000B7FAB094B7F8B09420E030E0A901C501BF
:10598000B4010E940527882309F43EC0D7FF06C052
:10599000D195C195D10903EB15E002C00BEC15E0E0
:1059A0006801B8E1CB1AD10890E2E92EF12CCE15AE
:1059B000DF0574F0F8012591359145915491C501A9
:1059C000B4010E9458284B015C01CE19DF09EFCFCA
:1059D00004501109F594E7940C151D0541F78A2D23
:1059E000880F8B2D881F8F3F49F020E030E0A90100
:1059F000C501B4010E940527811106C082E290E032
:105A00009093D0158093CF15C501B40109C060E013
:105A100070E080E89FEF04C060E070E080EC9FE7FA
:105A2000DF91CF911F910F91FF90EF90DF90CF907A
:105A3000BF90AF909F908F900895992788270895E1
:105A4000FB01DC014150504088F08D9181341CF005
:105A50008B350CF4805E659161341CF06B350CF471
:105A6000605E861B611171F3990B0895881BFCCF52
:105A700015E0CEEDD5E000E006C022970109FE0159
:105A80000BBF0E941D29C03ED10780E00807A9F77F
:045A9000F894FFCFB8
:105A94000000D115800013004465742065722062F3
:105AA4006C697474207265676973747265727420AA
:105AB4006661726C69672068C3B8792076616E6E1E
:105AC4007374616E642E2046C3B86C67656E64653A
:105AD4002076616E6E7374616E64206572206DC38E
